:100000000C94D8040C94F5040C94F5040C94F504A9
:100010000C9440300C94F5040C94F5040C94F50405
:100020000C94F5040C94F5040C94F62C0C94DE2D31
:100030000C94EB110C94F5040C94F5040C94F50459
:100040000C94F5040C94F5040C94F5040C94F5044C
:100050000C94F5040C94D22C0C94F5040C94F50437
:100060000C94F5040C94F5040C94F5040C94F5042C
:100070000C94F5040C94F5040C94F5040C94F5041C
:100080000C94F5040C94F5040C94F5040C94F5040C
:100090000C94F5040C94F5040C94F5040C94F504FC
:1000A0000C94F5040C94F5040C94F5040501090274
:1000B000A10185020901A1000509190129081500FE
:1000C0002501950875018102050109300931158165
:1000D000257F95027508810609381581257F9501D0
:1000E00075088106050C0A38021581257F95017572
:1000F000088106C0C005010980A101850319012AF4
:10010000B700150126B700950175108100C0050CD8
:100110000901A101850419012AA002150126A002E6
:10012000950175108100C00660FF0961A101096297
:10013000150026FF00952075088102096315002629
:10014000FF00952075089102C005010906A101056F
:100150000719E029E7150025019508750181029529
:1001600001750881010507190029FF150026FF0008
:100170009506750881000508190129051500250156
:10018000950575019102950175039101C000AF00BD
:10019000AE000000000000000000000000000000B1
:1001A000000000000000000000000000000000004F
:1001B00000000000007E0F00D4FFFFFFC70000001A
:1001C0007800000000000000002A2B28000000003A
:1001D00000000000000000000000000029000000F6
:1001E000002C1E3420212224342627252E362D379C
:1001F00038271E1F202122232425263333362E376D
:10020000381F0405060708090A0B0C0D0E0F101104
:1002100012131415161718191A1B1C1D2F31302311
:100220002D350405060708090A0B0C0D0E0F1011D9
:1002300012131415161718191A1B1C1D2F313035DF
:100240004C09025B00030100A0FA0904000001034D
:100250000101000921110100012244000705810369
:100260000800010904010002030000000921110136
:100270000001222200070582032000010705030375
:1002800020000109040200010300000009211101FE
:100290000001227B000705840320000112010002F7
:1002A00000000008270127010100010203011C03CF
:1002B0007600690061006C003A0066003600340088
:1002C00063003200620033006300000016036B001D
:1002D00079006C0065006600720065006E006300C6
:1002E0007900000012036B0079006C0065002000AB
:1002F00073006F006E00000004030904167C000008
:100300001E001F00200021002200230000003A00F0
:100310003B002B0014001A00080015001700000015
:100320003C003D00390004001600070009000A00E7
:1003300000003E003F00E1001D001B000600190008
:100340000500000040004100E000E300E200000082
:100350002C002152000024002500260027002D003B
:100360002E002A00A800000018000C001200130044
:100370002F00300031004C0000001C000D000E006A
:100380000F003300340028004A0000000B0010006A
:10039000360037003800E50052004D000000110023
:1003A0002C00E6002252E400500051004F000000F3
:1003B000010000003A003B003C003D003E003F00D1
:1003C00000000100010001000100240025002600BA
:1003D00001000000010001000100010021002200D5
:1003E00023000100000001000100010001001E00C7
:1003F0001F002000010000000100010001000100B9
:1004000037000000270001000000400041004200CA
:10041000430044004500010001000000010001000C
:1004200001000100010001000100010000000100C5
:1004300001000100010001000100010001000000B5
:1004400001000100010001000100010001000100A4
:100450000000010001000100010001000100010095
:100460000100000001000000010001000100010086
:100470000100010000000100010001000100010075
:100480000100010001000000010001000100010065
:100490000100010001000100000001000100010055
:1004A0000100010001000100010000000100010045
:1004B0000100010001000000010001000000010036
:1004C0000100010001000100010001000100000025
:1004D0000100010001000100010001000100010014
:1004E0000000010001000100010001000100010005
:1004F00001000000010001000100010001000100F5
:1005000001000100000001000100010001000100E4
:1005100001000100010000000100000001000100D5
:1005200001000100010001000000010001000100C4
:1005300001000100010001000100000001000100B4
:1005400001000100010001000100010000000100A4
:100550000100010001000100010001000100000094
:100560000100010001000100010000000100010084
:100570000000010001000100010001000100010074
:100580000100000001000100010001000100010064
:100590000100010000000100010001000100010054
:1005A0000100010001000000010001000100010044
:1005B0000100010001000100000001000100010034
:1005C000010001000100010001000000A900AA00D3
:1005D000A900AA00A900AA00A900AA0000DA0281C5
:1005E000FFD9F1DB20A4A62EAF00A0C0D30000A14C
:1005F000C8D30000AED580A81F408D142000FD3761
:100600007A585A000004E6D6B446020021011600CA
:100610000000742FE5A3E002FD01315D003D8889F3
:1006200086D3DC0AE842C324925842588FD8E75C4C
:10063000A0D2616E26E888019A676C7887BC8D37F6
:1006400009E9D5B739F4E81FA1588EC388CA0C5000
:1006500046E0794D13D43C0CD8F57FAD588A1BA4E5
:10066000EC48310C339150E78DB2B8427D964B1176
:100670003D0367B13A59741F77743C57C2A3B1BEAA
:10068000EAC9DC429D759F2B882F0D517586D24794
:1006900034D331454E9A6ED2669BED4B61E57F5463
:1006A00037FAA8B7766EB71126813BE04822B3F738
:1006B000315C3D28493309EE99055AF252711CC646
:1006C000B87D140EAC9FF832C79BD26A494FCE4A10
:1006D0000028BE6EEA625CEEA4CC105ED34B64BE12
:1006E000D329CD8C7F284CD03D722BAAE8B5A7B179
:1006F0005DE04FA41FD56F4E7630F77804BAD1E095
:10070000192DD30F047684D25282261D05496544E3
:10071000AB25F1439F85DCA75CC1942680B675EDBF
:10072000BCC2BE6E35865F84AB3AE29EAA94EB6D86
:10073000C23CC300E1C39EDA8149C18859430D63BD
:10074000DE03C5DAE72608CB5A655C93FB98000008
:10075000000012796AE60ABE5AC70001CD02FE0502
:100760000000A8299174B1C467FB020000000004D6
:10077000595AC1C1C2040810C03804030000A022A5
:1007800024141212A02122121111837C41414040F5
:10079000828284081020808000000000807019068A
:1007A000000080700C0300008000303000C080002A
:1007B0003030000049880808080044840404000020
:1007C0004080000000004040202020203CC2010169
:1007D000020235018A7C00002040800000002021B8
:1007E000221211112020101010101EE10000010132
:1007F0001CE20101020218648202020218608000F9
:10080000000018181B030040180605989984120B65
:10081000080808081109080808081010D0110F214D
:10082000101010110F01100808040404100804022D
:1008300002040C30408000000C0C0D01004008E860
:10084000080710240830408000000808080700004E
:100850000808040202020804020101020505090950
:10086000101004384080000004040808101004042C
:1008700004040404040402010000020281808000D8
:10088000020204040808020202010101020201003E
:10089000000001E11A0609310101020408100100FB
:1008A0000000000000808000000000804040202008
:1008B0000000808040400000606000810000010175
:1008C000004000000000001800000000000C0000C4
:1008D0000000000300000000000100000000000014
:1008E0003C34131E23162F333C0900110139210318
:1008F0001B291D322D243C3C3C3C3C34131E23164A
:100900002F333C090011013921031B291D322D24ED
:100910003C3C3C3C3C350E1F170F2B3C3C36050D38
:10092000073818021A271D322D243C3C3C3C063463
:10093000132620142F333C090011083921031B29E9
:100940001D322D243C3C3C3C3C34132528152F33D0
:100950003C090011083921031B291D322D243C3C80
:100960003C3C0634132620142C333C0A3010081962
:1009700004121B2A2E323C3C3C3C3C3C06341326E1
:1009800020142C333C0A3111081904121B291C0BAA
:100990003C3C3C3C3A3B0634132620142F333C0AA3
:1009A0003010083C37031B2A2E322D220C3C3C3CD5
:1009B00011241FBECFEFDAE0DEBFCDBF12E0A0E012
:1009C000B1E0E6E4F5E602C005900D92AC33B10764
:1009D000D9F726E0ACE3B2E001C01D92AA38B20715
:1009E000E1F70E94BF250C9457320C9400009C0143
:1009F000FB019A9581159F4120F5832F8170B32FBC
:100A0000B270AA27732F74706627532F587044272B
:100A100034FF0DC08295807FAB2B09F08062672B7D
:100A200009F08064452B09F0806809950895AB2B87
:100A300009F08260672B09F08460452BB1F3886070
:100A4000F4CF80E0F2CF80933F0608958093400674
:100A5000089521E030E001C0220F8A95EAF78091E5
:100A60004006822B0E942605089521E030E0A9016E
:100A700002C0440F551F8A95E2F7CA0180959091F4
:100A8000400689230E94260508959B01677091E026
:100A900001C0990F6A95EAF763E0369527956A9544
:100AA000E1F7B901660F771F260F371FFA01E20F32
:100AB000F31F40E050E0682F70E08191DF019B015F
:100AC000042E02C0369527950A94E2F721702195ED
:100AD0002827292328272E934F5F5F4F4330510546
:100AE00061F708959C01A82FA77083E0369527959C
:100AF0008A95E1F7C901880F991F820F931FFB01A7
:100B0000E80FF91F40E050E080E0219130E00A2E2C
:100B100002C0369527950A94E2F721703327042EF8
:100B200001C0220F0A94EAF7822B4F5F5F4F4330D8
:100B3000510559F70895282F862F903F79F09A3064
:100B400070F4293058F4622F70E029E0929F600D14
:100B5000711D112440E855E00E94450508959C5FF1
:100B60009230E0F7622F70E04DE755E0F5CF903F0F
:100B7000C9F09A3080F48930A8F4282F30E060E87A
:100B800075E0A901E9E09E9F400D511D1124CA01A5
:100B90000E94720508959C5F923020F46DE775E025
:100BA00090E0F6CF80E008959091400621E030E09B
:100BB000F90101C0EE0F8A95EAF7D90102C0AA0F28
:100BC000BB1F6A95E2F7EA2B01C0220F4A95EAF7AC
:100BD000892F8E23E81305C0892F822B0E942605BA
:100BE00008952095822F8923F9CF8091480690910E
:100BF0004706981301C008958F5F8770FACF9091D0
:100C000042068095892380934206282F2770211160
:100C100011C0891779F09091890692FF0BC08695D3
:100C2000869586950E9435051092420610924406DC
:100C3000109243060895982F909580913D06892340
:100C400080933D06089580913C06811531F0109205
:100C50003C06109246061092450608959C01803E7F
:100C6000910509F448C0D8F48133910509F47DC099
:100C700048F48932910509F46DC08A9709F47CC063
:100C8000C90108958933910551F18238910539F1EF
:100C9000C597B1F78091880685FFF2CF29C0843EC1
:100CA000910509F447C048F4823E910599F1833ECD
:100CB0009105A9F121EE30E0E3CF863E910509F4DC
:100CC00044C0873E9105E1F68091880683FD61C0AE
:100CD0009091890691FF2BC024EE30E0D1CF809116
:100CE00088068370811152C08091890683FFC8CF26
:100CF00029E230E0C5CF8091880680FD33C0909115
:100D0000890690FFBDCF23EE30E084FFB9CF20E00D
:100D100030E0B6CF8091880682FDF5CFB1CF8091CB
:100D2000880682FD30C09091890690FD2FC084FF17
:100D3000A7CFEDCF8091890681FFA2CF8091880651
:100D400027EE30E084FDE3CF9BCF8091880683FDC2
:100D5000F7CF96CF8091880685FD1EC080918906C9
:100D600083FF8ECF29E330E08BCF8091880686FF0A
:100D700087CF2AE230E084CF8091880686FF80CF3B
:100D800021E330E07DCF22EE30E07ACF20EE30E07C
:100D900077CF26EE30E074CF25E330E071CF90912D
:100DA000880692FF10C041E0282F2471243009F0FA
:100DB00040E031E0282F2871283009F030E0431757
:100DC00011F02CE0822793FF10C041E0282F2471FE
:100DD000243109F040E031E0282F2871283109F052
:100DE00030E0431711F02CE082273091890630FF64
:100DF00010C051E0282F2171213009F050E041E06E
:100E0000282F2871283009F040E0541711F029E00C
:100E1000822731FF10C041E0282F2171213109F0D4
:100E200040E031E0282F2871283109F030E04317E5
:100E300011F029E0822794FD877E08951F93CF93B8
:100E4000DF930E942E06EC01811522E5920708F03F
:100E500055C0811540E5940708F0D1C0803E91054A
:100E600020F58D3C910508F0A4C0883A910570F4F6
:100E7000853A910508F09AC081309105D1F1049727
:100E8000813A9105B0F1C0E0D0E033C0885A9109B1
:100E90004B97C8F7C85AD0E0CC0FDD1FCC53DE4FBC
:100EA0000990D881C02DD46424C0811550E49507E1
:100EB000C0F4C11580E2D80708F0B7C0C83ED1051C
:100EC000C0F0CE019A9581159F41E8F68D2F0E94C2
:100ED000CF06182FCE0199270E942E06EC01D12BA8
:100EE00008C099270E942E06CC27DF70C82BD92B6B
:100EF000D06ACE01DF91CF911F910895803842E5ED
:100F00009407C8F5803652E5950708F05BC0C034F9
:100F100082E5D807D0F4C03292E5D90708F04BC07B
:100F20008C2F8695869520E2829FC0011124C37084
:100F300021E030E0A90102C0440F551FCA95E2F735
:100F4000EA01C82BD92BDD68D4CF8C2F86958695E6
:100F5000877050E2859FC0011124C37021E030E00A
:100F6000A90102C0440F551FCA95E2F7EA01C82B38
:100F7000D92BDC68BECF803C52E5950758F48F71C1
:100F8000C03AD245A0F590E0982F8827EC01C46FB5
:100F9000D06AAFCF805C9245809708F074CFDC2F89
:100FA000CC27CC27DF71C06FD06AA3CFA497D064C1
:100FB000A0CFD0659ECFCF71D0E0DC2FCC27C16F02
:100FC000D06A97CF86958695877020E2829FC00170
:100FD0001124C37021E030E0A90102C0440F551F65
:100FE000CA95E2F7EA01C82BD92BDA6882CF0E94B2
:100FF000CF06C82FD0E0DC2FCC27D0627ACF8F71FC
:101000000E94CF0693E0CC0FDD1F9A95E1F7CC2725
:10101000DF70282F30E084FF04C050E1859F9001ED
:101020001124C22BD32BD06964CF8D2F8F710E94D6
:10103000CF06182FCE0199270E942E06EC01D12B46
:10104000DCCF80E00895F894E82FE295EF70F0E0AF
:1010500041A18F7021E030E0B90102C0660F771F17
:101060008A95E2F7CB01962F9095942391A392A1B4
:10107000892B82A37894089581E0809333050895A5
:101080009C0121158CE7380741F48091270190914C
:101090002801892B11F420E030E0C9010895E7EB25
:1010A000F5E080E090E06EE87DE144EB5DE129E26F
:1010B0003EE177836683518740873387228797870E
:1010C0008687019670968830910599F70895382F94
:1010D0002091D9048217B8F5562F569556955695F6
:1010E0005203C0011124830F911D811522E0920744
:1010F00054F5FC01E055FD4F5081677021E030E070
:10110000D90102C0AA0FBB1F6A95E2F7BD014115C4
:10111000D9F0652B6517B9F0608325E09695879522
:101120002A95E1F721E030E002C0220F331F8A95B3
:10113000E2F78091AE029091AF02822B932B9093B5
:10114000AF028093AE02089560956523E3CFA6E0D9
:10115000B0E0EDEAF8E00C946F319C0180918101E0
:101160008217130609F462C0209381018AE1829FED
:101170004001839F900C112400E010E0212C412CB1
:10118000612CC801805D9D4F5C01F801E85CFD4F5A
:101190006F01C8018C5C9D4F9C838B8339C0F40127
:1011A000E80FF11DE052F74F84918983F6013080FA
:1011B000EB81FC818081840D8A8396E08981989FF0
:1011C000C00111248E58984F9E838D83E12CF12C01
:1011D000ED81FE81EE0DFF1D7490512C9A819E0DC4
:1011E0009983632D650D41E070FE40E089810E9486
:1011F000670876945394E8E05E12F3CFFFEFEF1A9E
:10120000FF0A86E0E816F10419F7639496E0490EA8
:10121000862D820DF5019081691608F4C0CF0F5F0D
:101220001F4F0430110511F0282EA9CF2696E2E1B8
:101230000C948B319091F404292F30E07091F504D7
:10124000A9014F5F5F4F437055277417150689F04A
:101250002E503B4F60FB87F9F90184839F5F9370A9
:101260009093F4048091F2048F5F8093F20481E004
:10127000089580E0089590E06115E9F088549B4F4F
:10128000FC0180818F3FB1F0E82FE295EF70F0E034
:1012900041A18F7021E030E0B90102C0660F771FD5
:1012A0008A95E2F7CB01962F9095942391A392A172
:1012B000892B82A3089587549B4FE2CF90E061155C
:1012C000A9F088549B4FFC0120812F3F91F0E22F21
:1012D000E295EF70E05EF0E0808190E02F7002C058
:1012E000959587952A95E2F78170089587549B4FCD
:1012F000EACF80E00895FC01680F791F8FEF41E38A
:101300009191892728E030E0982F990F87FF09C035
:10131000892F842721503040B9F7E617F70781F766
:101320000895892FF7CF282F35EB2303C00111240F
:1013300097FF04C080589109892F089580589F4FC6
:10134000FBCF8091A60580FD14C081FD14C082FDF5
:1013500016C08091A505811581F08E3180F420E5BD
:10136000829FC00111246EE170E00E94A631862F99
:10137000089584E1089588E2089588E0089580E55D
:1013800008958091A60580FD17C081FD17C082FDDC
:1013900019C08091A405811599F0883298F428E04D
:1013A000829FC001112468E270E00E94A63161159D
:1013B000710551F0862F089562E0FCCF64E0FACF0A
:1013C00061E0F8CF68E0F6CF81E00895FA01309748
:1013D00009F00995089580916705811103C08091F6
:1013E0008B020895E0917305F0917405309729F010
:1013F0000190F081E02D0995089580E00895A3E023
:10140000B0E0E5E0FAE00C947F319C018091890224
:1014100090918A0282179307A1F030938A02209359
:101420008902E0917305F0917405309751F083E0E3
:1014300089833B832A830084F185E02DCE010196C8
:1014400009952396E2E00C949B31A3E0B0E0EBE237
:10145000FAE00C947F319C01809187029091880280
:1014600082179307A1F03093880220938702E091BE
:101470007305F0917405309751F084E089833B83C4
:101480002A830084F185E02DCE01019609952396EB
:10149000E2E00C949B319C01FC0132968FEF90E0CE
:1014A0004191461751F08F3F19F4411101C0892F26
:1014B0009F5F9630A9F78F3F09F40895280F311DDB
:1014C00087FD3A95F901628308959C01FC013296EB
:1014D000285F3F4F8191861302C0DF011E92E21701
:1014E000F307C1F7089580910A0108952FB7F89482
:1014F00060918302709184028091850290918602AE
:101500002FBF0895CF92DF92EF92FF9280916705EF
:10151000811559F00E94760A6B017C01C701B60162
:10152000FF90EF90DF90CF9008950E94760AC090D0
:101530006905D0906A05E0906B05F0906C05C60EC9
:10154000D71EE81EF91EEACF0F931F938B019C0153
:101550004FB7F89460918302709184028091850264
:10156000909186024FBF601B710B820B930B1F91F2
:101570000F91089587E797E79093010880930008FB
:1015800088E19AE00FB6F894A895809360000FBEAA
:1015900090936000FFCF0895FC019B018091790238
:1015A00090917A028617970740F0672B29F4809173
:1015B000E8008E778093E800C90140E0009741F48D
:1015C000411106C08091E80082FF2FC080E008959D
:1015D000209119052115A9F12530A9F12091E800E4
:1015E00023FD2DC02091E80022FDECCF2091E800E2
:1015F00020FFE4CF3091F3002091F200009719F022
:101600002830310558F041E02830310509F040E03C
:101610002091E8002E772093E800D0CF41914093AD
:10162000F10001972F5F3F4FE9CF80911905811598
:1016300041F0853041F08091E80083FFC3CF81E025
:10164000089582E0089583E008958091730287FFF2
:1016500013C08091E80082FF06C08091E8008B777C
:101660008093E8000895809119058111F2CF0895C3
:10167000809119058115D9F38091E80080FFF8CF9A
:101680008091E8008E77ECCF2091E4003091E50066
:1016900095E6A9012091EC00822F817020FF06C001
:1016A0008091E80080FF06C080E008952091E80066
:1016B00022FD1AC080911905811589F0853089F0C5
:1016C0008091EB0085FD0FC02091E4003091E50092
:1016D00042175307F9F29A95E1F684E0089582E003
:1016E000089583E0089581E00895E8EDF0E08081B9
:1016F0008E7F80831092E2001092DA001092E10057
:10170000A0EEB0E08C9181608C9380818F77808394
:1017100019BCA7EDB0E08C918E7F8C9380818F7E79
:101720008083109272020895982F9093E900891790
:1017300071F07091EC002091ED005091F00021FDCE
:1017400009C09F5F973089F78093E9000895762F4D
:10175000242F50E03091EB003E7F3093EB0030912E
:10176000ED003D7F3093ED003091EB003160309320
:10177000EB007093EC002093ED005093F00020916B
:10178000EE0027FDDECF0895A0E0B0E0EAECFBE03C
:101790000C947931C8EDD0E088818F7E8883E7EDA5
:1017A000F0E080818160808384E082BF81E080936B
:1017B000720288818E7F888302EE10E0F801108229
:1017C0001092DA0081EEC82ED12CF60110828881A9
:1017D0008F77888388818068888388818F7D8883DC
:1017E00019BC10921905109271021092DC0410922B
:1017F000700290EEE92EF12CF70180818B7F8083BF
:1018000088818160888342E060E080E00E94940BE0
:10181000F60180818E7F8083F801808181608083E2
:10182000808188608083F70180818E7F80838881BA
:1018300080618883CDB7DEB7E8E00C949531E09104
:1018400048069091470627E0E91302C080E008951A
:10185000AE2FB0E02E9FF0011124E75BF94F3181EC
:10186000361306C03081381303C03581341304C0E9
:10187000FD013196E770E8CF81E008950F931F9343
:10188000CF93DF938B01EA0190911905943059F5BC
:101890008093E9008FEF9091E80095FD06C095EDEB
:1018A0009A95F1F700008A95B1F78091E80085FFDD
:1018B0001AC00E94440B811111C08091E80085FD7F
:1018C00006C08091E8008E778093E800F2CFF8019F
:1018D00081918F018093F100219779F78091E80041
:1018E0008E778093E800DF91CF911F910F9108953B
:1018F000CF93DF93D82FC92F48E050E0682F792F7E
:1019000081E00E943E0C88E0ED2FFC2FABE7B2E0B7
:1019100001900D928A95E1F7DF91CF910895BC0176
:1019200046E050E084E00E943E0C0895BC0143E094
:1019300050E084E00E943E0C0895A0E0B0E0E3EAAD
:10194000FCE00C947731182F092FB62EA72E7A01C0
:1019500080916F029AE0C92ED12C8A3018F0CC24E5
:10196000C394D12CC1E0D0E06B2D7A2D812F902F24
:10197000F7010995811116C02196CC16DD0694F069
:10198000CC9FC001CD9F900D900D112420E030E040
:1019900045E34A95F1F700002F5F3F4F28173907BD
:1019A000B9F7E2CFCDB7DEB7EAE00C94933190916E
:1019B000890692FB222720F9281779F080FB92F9FB
:1019C00090938906609188067091890684E090E082
:1019D0000E94393282E00E94FF0508951F93CF9341
:1019E000DF93962F122F632F8430D8F49A30C8F4E7
:1019F0004930B8F4C42FD0E0CC0FDD1F22E1929F14
:101A0000C00DD11D112494EB899FC00DD11D11244F
:101A1000CE0188960E941B32612FCE0189960E94CA
:101A20001B32DF91CF911F9108950F931F93CF9396
:101A3000DF93962F142F022F632F8430E8F4911137
:101A40001BC024E0829FE0011124C850DD4F81E0DB
:101A500084279E01280F311D280F311DC9010E94C6
:101A60001B3281E090E0111102C083E090E0602F12
:101A70008C0F9D1F0E941B32DF91CF911F910F9100
:101A80000895CF93DF93C8E5D3E060E0CE010E94D4
:101A90001B322196C11584E0D807B9F7DF91CF91A9
:101AA0000895CF93C82F62E4811101C06FEF84E2E3
:101AB00090E00E941B3269EEC11101C06FEF85E218
:101AC00090E00E941B3262E2C11101C06FEF86E21A
:101AD00090E00E941B32CF9108950F931F93CF93F4
:101AE000DF93843030F56A3020F5493010F5C42F8B
:101AF000D0E0CC0FDD1F22E1629FC00DD11D11246B
:101B000034EB839FC00DD11D1124CE0188960E9415
:101B1000FD31082F10E0102F0027CE0189960E947A
:101B2000FD319801282BC901DF91CF911F910F91B1
:101B3000089580E090E0F8CFFF920F931F93CF932A
:101B4000DF93F42E843040F5611126C024E0829F9B
:101B50008001112408501D4F81E084279801280F2F
:101B6000311D280F311DC9010E94FD31C82FD0E061
:101B7000DC2FCC2781E090E0F11002C083E090E000
:101B8000800F911F0E94FD319E01282BC901CDB706
:101B9000DEB7E5E00C94983180E090E0F8CF462F76
:101BA000672F20916F0530917005232BC9F4703F8A
:101BB00039F4403FA9F480916D0590916E05089528
:101BC0007A3038F4493060F4843050F40E946D0D5E
:101BD00008957D3F41F4411103C041E0843048F055
:101BE00080E090E008957C3FD9F74111F9CF84302F
:101BF000B8F760E00E949C0D0895A0E0B0E0E3E03B
:101C0000FEE00C947A317C010091400680913F0601
:101C1000082BC3E0D0E010E0C8010C2E02C095955F
:101C200087950A94E2F780FD09C02197A8F7D12C87
:101C30008D2DCDB7DEB7E7E00C949631DC2EB701E1
:101C40008C2F0E94CF0D0E941E07019771F3F0CFD9
:101C50000F931F93CF93FC01858100811181811522
:101C600091F0611581F0C8010E94FD0DC82F682F09
:101C7000C8010E949B05B8018C2F0E94CF0DCF9107
:101C80001F910F910895C8010E94B705C82FF3CF87
:101C9000CF93DF93D82FC92F0E94FD0D6D2F7C2F7E
:101CA0000E94CF0D0E941E07DF91CF910895FC0185
:101CB00084818115A1F0808191810E94480E282F96
:101CC00092959F70963099F060F4925F9F70923079
:101CD00030F4203FB1F038F481E0283E38F080E065
:101CE00008959A5FF3CF81E0243FC9F7089591E00A
:101CF000213F09F090E081E0283E08F080E0892B48
:101D0000089581E0089584E290E00E94FD318234DC
:101D100089F485E290E00E94FD31893E59F486E223
:101D200090E00E94FD3191E0823209F090E0892F2D
:101D30008170089580E0FCCFE0EBF2E080E092E07B
:101D4000DF019C011D9221503040E1F78FEF9FEFA2
:101D50009093AF028093AE020895A0E0B0E0E3EB71
:101D6000FEE00C947931FA0169017801C82F880FDF
:101D7000DD0B3097B9F0DE0193E0AA0FBB1F9A95F7
:101D8000E1F7A75DBE4F11968D919C911297895BEB
:101D90009A4F2C91422F50E0E217F10508F4AF0161
:101DA0000E94DD31CE010E94E730182F8115D9F055
:101DB000E114F104C1F083E0CC0FDD1F8A95E1F757
:101DC000FE01E75DFE4F8381482F50E0E816F104E5
:101DD00008F4A701C75DDE4F6C817D81695B7A4F96
:101DE000C6010E94DD31812FCDB7DEB7E8E00C944B
:101DF0009531A1E0B0E0EFEFFEE00C947331762E68
:101E00005A014901680101E010E09E012F5F3F4F38
:101E100040E050E060E070E00E94AD0E182F8115A8
:101E2000A1F1F50160817181828193810E94A40AF0
:101E30006980643671058105910530F4B701C601EA
:101E40000E947B09861509F18701940140E050E06A
:101E500060E070E0872D0E94AD0E082FB701C6012B
:101E60000E947B0910E086110BC0102F117000FF3B
:101E700007C00E94760AF501608371838283938391
:101E8000812F2196EEE00C948F31A701B601C40199
:101E90000E94DD31F5CFAAE0B0E0E1E5FFE00C946F
:101EA00079316B018AE0E82EF12C08E415E09E01FF
:101EB0002F5F3F4F43E455E061E080E00E94F90E60
:101EC000811549F09AE0FE013196A9E3B5E0019051
:101ED0000D929A95E1F79AE0E9E3F5E0D6010190D9
:101EE0000D929A95E1F72A96E8E00C949531A8E0D6
:101EF000B0E0EDE7FFE00C947B3188E0E82EF12CB8
:101F000003E515E09E012F5F3F4F45E355E063E099
:101F100082E00E94F90E182F8115C1F190915205AF
:101F200080913405981791F1F12C9091560580918C
:101F30005505891729F1E92FF0E0E55BFA4F848513
:101F400087FB662760F99F5F937090935605909189
:101F500054059F5F909354058F770E941A09F82EBD
:101F60008111E3CF00E010E020E030E040E050E0FD
:101F700060E070E084E00E94AD0E1F2D182302C0C7
:101F8000F110F0CF8091520580933405812F28966F
:101F9000E6E00C949731A4E0B0E0E1EDFFE00C94B2
:101FA0007D3160912F0570913005809131059091C0
:101FB00032050E94A40A11E064367105810591057D
:101FC00020F10E94820ADC01CB010296A11DB11D05
:101FD00089839A83AB83BC8300E010E020E030E08B
:101FE00044E050E0BE016F5F7F4F85E00E94AD0E80
:101FF000182F811551F00E94760A60932F05709377
:1020000030058093310590933205812F2496E4E0CA
:102010000C949931A4E0B0E0E0E1F0E10C947D3162
:1020200060911F05709120058091210590912205F6
:102030000E94A40A30913D063983643671058105FA
:10204000910508F042C081E020916205231301C090
:1020500080E0909141069A83811106C081E0209131
:102060006305291301C080E090913C069B83811198
:1020700006C081E020916405291301C080E09091A1
:102080003E069C83811104C0809165058917C1F0CB
:1020900000E010E020E030E044E050E0BE016F5F7F
:1020A0007F4F89E00E94AD0E811559F00E94760A9B
:1020B00060931F057093200580932105909322055E
:1020C00081E02496E4E00C94993181E0C2CFA0E055
:1020D000B0E0EDE6F0E10C947A31F82EEB01142F2C
:1020E000D22EE32E688179818A819B810E94A40A85
:1020F000643671058105910510F4111599F000E021
:1021000010E020E030E041E050E06D2D7E2D8F2D7D
:102110000E94AD0E811539F00E94760A688379839A
:102120008A839B8381E0CDB7DEB7E7E00C949631DC
:1021300041E090915F0580914006981301C040E016
:1021400020E436E06BE275E086E00E9467108115BE
:1021500079F041E09091600580913F06981301C0AD
:1021600040E02FE336E067E275E087E00E94671009
:102170000895A1E0B0E0EFEBF0E10C947F310E9414
:10218000EB09898341E090916105981301C040E01B
:102190009E012F5F3F4F63E275E088E00E94671069
:1021A0002196E2E00C949B31A1E0B0E0EAEDF0E191
:1021B0000C947F3180911A0589832091660590E007
:1021C00041E02817190609F440E09E012F5F3F4FB8
:1021D0006BE175E08AE00E9467102196E2E00C94C2
:1021E0009B31AAE0B0E0E7EFF0E10C947231A090EF
:1021F0002701B090280181E090E09093280180931E
:1022000027013CECE32E35E0F32EC12CD12C10E05D
:10221000360100E015C0F40125913491452D602F61
:10222000812F0E94EE0C22E0820E911C539439E023
:102230005312F1CF89E0680E711C0F5F0A3049F02C
:10224000C301880F991F9C0124503D4F4901512C17
:10225000E2CFF7012591349141E060E0812F0E94A7
:10226000150DF70132962591349140E060E0812F01
:102270000E94150D34E0E30EF11C1F5F8AE5C80EC5
:10228000D11C143009F0C4CF1A8219821C821B821F
:102290001E821D8218861F8288EC90E09A878987AB
:1022A00008E013E04AE050E0B801CE0101960E9438
:1022B0003F32065F1F4F083523E0120799F7B092AF
:1022C0002801A09227012A96EFE00C948E3180E03D
:1022D0000E94510D60E087E290E00E941B320E9454
:1022E000F1100E94410D81E00E94510D0895AB0153
:1022F00024E630E0BC0188E70E94032F9C0181E0C6
:10230000232B09F080E008958091D404811569F0B1
:1023100080911A05811549F062E070E08FE891E044
:102320000E947711811110921A0508958091D404AA
:102330008115F9F00E94760ADC01CB0180529C469F
:10234000AB4FBF4F8093D5049093D604A093D7048E
:10235000B093D80480911A0581110BC062E070E03F
:102360008DE891E00E947711811519F081E080934A
:102370001A050895282FCB01283070F44AE0249FD5
:1023800090011124B901685F7C4F4AE050E00E943F
:10239000ED3180E090E008958FEF9FEF0895AAE07F
:1023A000B0E0E5EDF1E10C947F319C01975581158A
:1023B000914070F4BE016F5F7F4F822F0E94BA116F
:1023C000892B31F489859A852A96E2E00C949B3119
:1023D00088EC90E0F9CF1F921FB61F9211248F93C3
:1023E0009F93AF93BF938091DB04811113C08091C1
:1023F000830290918402A0918502B0918602419659
:10240000A11DB11D8093830290938402A093850245
:10241000B0938602BF91AF919F918F911F901FBE85
:102420001F9018952FB7F8948091830290918402A1
:10243000A0918502B09186022FBF0895CF93DF93BC
:10244000C0913D0680914106C82B80913C068115C4
:10245000F9F00E9412122091450630914606821B27
:10246000930B8838934110F00E942306D0913C06CC
:1024700020E080E492E0FC013081019631112F5F71
:1024800032E086349307B9F721110E942306CD2B41
:10249000C0933E0248E050E065E775E08EE392E0CD
:1024A0000E94D031892BA9F088E0EEE3F2E0A5E7A5
:1024B000B5E001900D928A95E1F7E0917305F091F6
:1024C0007405309731F00280F381E02D8EE392E0C5
:1024D0000995DF91CF910895811539F090913D06CE
:1024E000892B80933D060E941E120895811521F0CC
:1024F0000E941B060E941E120895811539F09091CA
:102500004106892B809341060E941E120895811571
:1025100041F08095909141068923809341060E9465
:102520001E120895CF93DF93EC014A855B856E857B
:102530007F850E94E6099B819095809141068923C1
:10254000809341068C810E941B060E941E1286E029
:10255000FE0111928A95E9F7DF91CF910895CF930B
:10256000DF93EC018D8181FD17C082608D838091A6
:1025700041069B81892B8093410680913D069C8179
:10258000892B80933D060E941E12488559856E85D1
:102590007F85CE010E94E609109238061092370618
:1025A0008D8180FD03C0CE010E949212DF91CF91F8
:1025B0000895962F2091890622FF10C0682F660F7C
:1025C000660F660F692B609342060E9429050E94E0
:1025D0001212909344068093430608950E942905A1
:1025E000089590913C06292F2823211561F08095AC
:1025F000892380933C06811539F00E941212809342
:10260000450690934606089580E090E0F8CF0E943A
:1026100012122091A9053091AA05232B211521F032
:1026200080930005909301052091AB053091AC0596
:10263000232B211521F08093FE049093FF04E09159
:102640007305F0917405309749F082E08093A705F7
:102650000680F781E02D87EA95E0099508956115D8
:1026600009F44BC0E3E3E80FE33150F4F0E0E75A3C
:10267000FD4C0C94BA310E94A10981958093AA0562
:102680000E94071308950E94A109F8CF0E94A10992
:1026900081958093A905F4CF0E94A109FACF0E94E9
:1026A000C1098093AB05ECCF0E94C1098195F9CF98
:1026B0000E94C10981958093AC05E2CF0E94C109B7
:1026C000FACF815D990B21E030E001C0220F8A959D
:1026D000EAF78091A805822B8093A805D1CF80913D
:1026E000A60581608093A605CBCF8091A605826068
:1026F000F9CF8091A6058460F5CF4091A9058D3C66
:1027000059F48091AA0587FF0DC01092AA054115C2
:1027100059F41092A50508C08E3C81F48091AA0559
:1027200018169CF3411581F08091AB059091AC0592
:10273000892B8111A5CF1092A405A2CF8F3C41F423
:1027400047FFF0CF1092A9058091AA058115E0CF2F
:10275000803D19F41416B4F3E5CF9091AB05893D93
:1027600029F41916FCF61092AB05DCCF8A3D19F45A
:1027700097FFD8CFF8CF9091AC058B3D29F497FF08
:10278000D1CF1092AC05CECF8C3D19F41916CCF3F5
:10279000C9CF9FE2980F983090F4815D990B21E0AA
:1027A00030E0B90102C0660F771F8A95E2F7CB01CE
:1027B00080959091A80589238093A805B3CF8D3D7E
:1027C00031F48091A6058E7F8093A605ABCF8E3D18
:1027D00021F48091A6058D7FF7CF8F3D09F0A2CF20
:1027E0008091A6058B7FF0CFCF93C82F8115B1F0D4
:1027F0008CEF8C0F813AA0F4E0E4F2E086E492E002
:102800002191C21709F43FC08E179F07C9F76C2F9B
:102810008EE392E00E944B0A0E941E12CF9108950F
:1028200080E28C0F883068F4C77021E030E001C08E
:10283000220FCA95EAF780913D06822B80933D06D0
:10284000EBCF8BE58C0F833038F42C2F2452330BD5
:10285000C9010E94FF09E2CFE8E5EC0FEB3150F42B
:10286000F0E0EE0FFF1FE650FE4F808191810E9445
:10287000250AD4CF83E38C0F833180F661E08C2F5F
:102880000E942F13CBCF6C2F8EE392E00E94650A3B
:102890000E941E12BCCF811599F19CEF980F913ABE
:1028A00040F4682F8EE392E00E94650A0E941E1297
:1028B000089590E2980F983050F4877091E001C02D
:1028C000990F8A95EAF7892F0E941B06EFCF9BE5A7
:1028D000980F933028F480E090E00E94FF0908955B
:1028E00098E5980F9B3128F480E090E00E94250A3B
:1028F000089593E3980F933118F460E00E942F132A
:1029000008950F931F93CF93C82F8B010E94F41348
:102910000115110539F48C2F0E944B14CF911F9192
:102920000F9108958FE99FE00197F1F700C0000033
:1029300001501109EDCFA0E0B0E0E1EAF4E10C9420
:102940007831EC018881811509F4A9C0813009F042
:102950004AC08981813079F48E010E5F1F4F8A81D0
:1029600060E570E0893311F060E070E00E9481144E
:10297000E8012196E7CF823039F48E010E5F1F4FB8
:102980008A810E94F413F4CF833039F48E010E5FF4
:102990001F4F8A810E944B14EBCF843011F0219697
:1029A000E8CF2A81229680E090E06AE0AE014F5F96
:1029B0005F4F2053330B2A30310550F00097C9F296
:1029C000EFE9FFE03197F1F700C000000197F6CF83
:1029D000689FF001699FF00D1124C9018E0F9F1FA0
:1029E0002981EA01E3CFE82FF0E0EF53FE4FB490E6
:1029F000282F26952695269530E0F901EF54FE4FB5
:102A0000E4908770F12C082E02C0F594E7940A94A4
:102A1000E2F7E0FAEE24FF24E0F8F901EF55FE4F6B
:102A2000C490D12C082E02C0D594C7940A94E2F722
:102A3000C0FACC24DD24C0F8F901EF56FE4F049112
:102A400010E002C0159507958A95E2F701701127ED
:102A5000E114F10419F081EE0E94F413C114D104C1
:102A600019F086EE0E94F41360E070E08B2D0E9456
:102A70008114C114D10419F086EE0E944B14E114A4
:102A8000F10419F081EE0E944B140115110509F4AF
:102A900070CF60E070E08CE20E9481146ACFCDB705
:102AA000DEB7E9E00C949431CF9310923D06C6E076
:102AB000E0E4F2E0DF018C2F1D928A95E9F780E0D7
:102AC00090E00E94FF0980E090E00E94250A1092A9
:102AD00041060E941E12E7EAF5E0DF011D92CA9549
:102AE000E9F71092A5051092A4051092A6050E9480
:102AF0000713CF9108950E9454152FEF84E39CE0B3
:102B0000215080409040E1F700C0000088E19AE049
:102B10000FB6F894A895809360000FBE9093600064
:102B2000FFCFA4E0B0E0E7E9F5E10C9473316C016C
:102B3000DC0114968C91811509F40DC261E0C60187
:102B40000E94280E8C01F6018581811531F180915A
:102B5000370690913806009701F108171907E9F038
:102B6000FC01FF27887F9927892B09F067C074E053
:102B7000EE0FFF1F7A95E1F7E954FA4F85818460E3
:102B8000858311830083CF010E94AF12109241060A
:102B900061E0C6010E94280E8C01D60115968C9129
:102BA000811509F4BEC0C80197578038910508F017
:102BB0004CC1F02EB0E10B1708F0BCC18FEF93E0D1
:102BC0000E94FD318111B6C108E513E0F11039C052
:102BD00064E0662E9E012F5F3F4F5901D501E62D1F
:102BE0001D92EA95E9F74801FFEF8F1A9F0AC80185
:102BF0000E94FD318983811509F49CC1813009F05F
:102C00008AC0780122E0E20EF11CC4010E94FD316D
:102C1000782E8A83811509F48DC18FEF870D83305B
:102C2000F0F4C7010E94FD318B83811519F0C501B5
:102C30000E949B140D5F1F4F780171C0E0E0F0E02F
:102C40009DCF0115E4E01E0709F474C1C8010E947C
:102C5000FD310F5F1F4F8111F4CFFA94B7CF8BEF87
:102C6000870D833060F5480143E0840E911CC70155
:102C70000E94FD318B83811509F450C00C5F1F4FFA
:102C80007801C4010E94FD318C83811509F447C08D
:102C90008B819C818130AFEF9A0710F0982F8827A5
:102CA000B6E07B1631F0E7E07E1631F00E94811D20
:102CB00036C00E941B1D33C00E944E1D30C0F4E080
:102CC0007F122DC0C7010E94FD31982E780124E0AB
:102CD000E20EF11CC80103960E94FD31282F9114C9
:102CE00009F428C1811509F425C12150330B4FEF98
:102CF000429FC001439F900D1124492D4150550B17
:102D0000840F951F019758F0AFE9BFE01197F1F7D5
:102D100000C00000F7CFC5010E949B147401870119
:102D20005DCF0115E7E51E0708F4D3C00115F8E5EE
:102D30001F0708F0CBC3780127E5F21A6DEA75E0AA
:102D40008E2D0E94BA11892B31F5C70144E0880FFE
:102D5000991F4A95E1F7FC01E954FA4F228121308D
:102D600009F05EC02091AD053091AE05232B99F09E
:102D70002091AF053091B005232B69F02091B1056A
:102D80003091B2054091B3055091B405242B352BF9
:102D9000232B09F44FC0580148EFA422BB24A114EF
:102DA000B10409F0C7C0F801FF2734E0EE0FFF1FA0
:102DB0003A95E1F7CF0189549A4F7C01D6011596D7
:102DC0008C91E454FA4F908180FB90F990838115A7
:102DD00009F459C00E94121290933A068093390662
:102DE000F70182818F5F82838091410690913D0639
:102DF000892B838380913C06848346815781668535
:102E00007785C7010E94E609D70115968C9181FF4D
:102E10005801B0923806A0923706F601858154C059
:102E2000223009F0B8CF2091B1053091B205232BA3
:102E300009F4B1CFFC01E454FA4F20812E7F2083A6
:102E400089549A4F0E94AF12A6CFC8019755811599
:102E5000914008F4A0CF0631FCE71F0709F457C0E2
:102E6000D60115968C910737BCE71B0769F58115CC
:102E700009F475C081E00E94290543E062E081E029
:102E80000E94D40557C0D7011C964D915C911D97A7
:102E90001E966D917C91C7010E94E609F70185811C
:102EA00081FFBBCFC7010E9492128091370690919B
:102EB00038060817190709F0B0CF1092380610929B
:102EC0003706D60115968C910837ECE71E0709F4F2
:102ED0004AC0F60185819801205E324520323105D5
:102EE00008F047C081115CC00F7181E090E09C0147
:102EF00002C0220F331F0A95E2F78901622F83E097
:102F000090E00E941B32802F0E94230513C0809105
:102F10003D068A7A91E0811101C090E090933B06D2
:102F200065E3811101C069E28EE392E00E944B0AE1
:102F30000E941E12809142068770811561F0D601B1
:102F400015968C91811539F08091890682FF03C016
:102F500082E00E94FF052496EEE00C948F3181E020
:102F60000E9435058ACF811511F082E084CF82E07E
:102F7000F7CF8115A9F00A353CE7130709F486C09D
:102F800008F05EC001305CE7150709F47DC003302E
:102F90008CE7180709F472C001151C4709F461C0D9
:102FA000F6018581E080F180811509F473C0C701C5
:102FB0000E94FD0D182F682FC7010E949B05B701C5
:102FC000812F0E94CF0D0E941E078C01D6011596FD
:102FD000BC9015971696AC90A2942FE0A2228091F7
:102FE00042068770811501F1EB2CB114F1F0812FAD
:102FF000807F803461F080E2800F8830A8F0812FDC
:10300000807E803221F4023078F0A11469F0809142
:10301000890682FF09C082E00E94FF058091420676
:103020008770EE24E3948111E12CE12FE295EF709B
:10303000103C08F093C0F0E0E459FD4C0C94BA3118
:103040000B35ACE71A0721F180918906002482FF35
:103050000394802D0C351C4709F0A2CF0E94D70C99
:103060009FCF0E945415EFEFF4E32CE0E150F040C5
:103070002040E1F700C000000E94BA0A6FEF7FEF26
:1030800080E090E00E9439320E947B1581E0E6CF1B
:1030900080E0E4CFC7010E94B705182F90CFB12F71
:1030A000BF70FB2E103118F0F29490EFF922B1149A
:1030B000B9F0F11469F080E2800F883010F001114E
:1030C00009C080913D068F2980933D060E941E1203
:1030D000802F42C0809141068F2980934106F6CF10
:1030E000802F0E944B14F114C9F180E2800F8830C8
:1030F00010F0011104C08F2D0E941B0606C0F09431
:10310000809141068F21809341060E941E1226C0A5
:10311000E12FEF70FE2E107F103219F0F29480EF45
:10312000F822011549F0013009F485C0B11409F401
:1031300091C0A114B9F1CCCF8091890682FD2EC037
:10314000B11431F1F11439F080913D068F2980934B
:103150003D060E941E1280E00E94F413E11409F45F
:1031600081C18091420680FD7DC1D60115961C92D9
:103170008695869586950E942905C6010E9491151F
:10318000809142068695869586950E9435056AC18E
:1031900080E00E944B14F11409F3ADCFB11469F132
:1031A000A11004C08F2D0E946C12D8CFF1E0AF1295
:1031B00010C010913C068F2D8123F81679F20E94E1
:1031C000121290934606809345061F2910933C06E1
:1031D000C5CF25E0A212C2CF8F2D0E946C128F2D79
:1031E0000E94F11280913E069F2D9823F91609F452
:1031F000B5CF8F2980933E06B1CFA11012C08F2D7D
:103200000E9476128F2D0E94F11280913E069F2D12
:103210009823911509F4A2CFF094F822F0923E067B
:103220009DCF31E0A3129ACF80913D068F21811569
:1032300009F494CFE4CFB11429F046E0A41608F0C5
:103240008DCFB0CF55E0A51608F088CF8F2D0E9406
:10325000761284CFA114D1F3093349F48FEF97EE9E
:10326000A3E081509040A040E1F700C00000802F13
:103270000E944B1473CF812F86958695837081159C
:1032800061F0813009F06ACFC8019370B11002C0BB
:1032900080E090E00E94250A61CFC8019370B110D0
:1032A00002C080E090E00E94FF0958CF6B2D802F74
:1032B0000E942F1353CF812F8370811135C0B11419
:1032C00019F00E94EB094ACF402F4295469547706E
:1032D000440F440F802F8F70042E01C0880F0A9472
:1032E000EAF7202F207104FF07C02FE030E001C073
:1032F000220F4A95EAF7209516951695137012300D
:1033000071F0133051F030913F06113029F0822BCB
:1033100083230E942305D5CF832B822BFACF822BC8
:1033200090913F068927F5CFB11451F110FFC9CF15
:10333000402F429546954770440F440F802F8F7061
:10334000042E01C0880F0A94EAF7202F207104FF91
:1033500007C02FE030E001C0220F4A95EAF7209520
:10336000169516951370123089F0133069F030916C
:103370004006113041F0822B83230E942605A1CF05
:103380008230B0F69ECF832B822BF7CF822B909189
:1033900040068927F2CF1F70B11439F0812F0E94A7
:1033A0002905802F0E946C128CCF802F0E947612EC
:1033B000812F0E94350585CF023F71F170F4003FE7
:1033C000C9F0013F91F0B11409F46CC0A11409F4E3
:1033D00066C0802F0E94F41374CF033F21F1043F95
:1033E00091F78091890682FD2AC0812F8F71B114D7
:1033F00001F316C0B11469F0B5E0AB1608F061CF67
:103400001F7181E090E0012E01C0880F0A94EAF755
:10341000BECFE6E0AE16F2CF812F8F71B110C9CFCB
:103420000E9429054ECF80E0B11409F4A6CF1F7188
:1034300081E0012E01C0880F0A94EAF79ECFB114F3
:10344000F9F0809142068770843089F41092420628
:103450001092440610924306812F8F710E94350509
:103460000E94EB0960E0C6010E94280E74CDF5E0D1
:10347000AF16B0F763E0812F8F710E94D912F0CFA1
:1034800025E0A21640F010924206109244061092D7
:10349000430664E0F0CF81E00E94FF05E1CF812F79
:1034A0008F71BECFA11479F0093349F43FEF47EE95
:1034B00053E0315040405040E1F700C00000802F01
:1034C0000E944B14FECE812F8F7173CF06312CE7F3
:1034D000120709F0C5CC80913B0665E3811101C05C
:1034E00069E28EE392E00E94650A22CDA0E0B0E09E
:1034F000ECE7FAE10C947A3180918706803108F08C
:1035000049C080918606811509F444C0C0914806DF
:1035100087E0D82E809147068C17E1F1EC2EF12C34
:10352000DC9EE0011124FE01E75BF94F84818115E7
:10353000B1F1918180918206981331C09081809180
:10354000810698132CC08581811129C002811381C5
:103550008091830690918406081B190B60E081E836
:1035600096E00E94280E0E94CF1108171907B8F4A0
:10357000809187068F70806180938706C15BD94FE9
:1035800088818F708061888381E896E00E94911520
:103590000E94F505CDB7DEB7E7E00C949631E70160
:1035A0002196C770B7CFADE0B0E0E9EDFAE10C9439
:1035B00072318C0186E0F801DE01189601900D92BF
:1035C0008A95E1F7F801F580E48081E8882E86E0AD
:1035D000982E80918506811118C0E11499F0F1149C
:1035E00009F456C1C8010E94570E811509F450C153
:1035F00087E0F801A1E8B6E001900D928A95E1F725
:103600000E94761AFF24F39461C0A280B380D09008
:10361000860680918306909184063501681A790A9E
:10362000D11409F4F0C0C080518060E081E896E0D8
:103630000E94280E0E94CF116816790608F09EC0DD
:10364000E11401F380918206F8019181E0908706F0
:10365000F0E1EF1608F05BC0981317C09091810657
:10366000F8018081981311C0F1104BC08E2D8F701E
:1036700080618093870681E896E00E949115809191
:103680008706F8018683F12C21C0F1103AC040E092
:10369000652D8C2D0E941F0C40E0652D8C2D0E9405
:1036A0001F0CF82E8111EFCF888599850E94480E56
:1036B000292F22952F70903470F49F702230A0F043
:1036C0009115B1F0F8019681903190F48F2D2D96DF
:1036D000EFE00C948E312A5F2F70223068F0C80121
:1036E0000E949115FD2CF2CF911511F0811571F307
:1036F000805E883058F3F3CF803F40F3815F8330A2
:10370000F9CF80918706816080938706BCCF98139C
:1037100015C090918106F801808198130FC0F110B7
:103720000DC0E682C8010E94911587E0F801A1E86A
:10373000B6E001900D928A95E1F764CFC8010E942E
:10374000570E811509F4A4C0F11409F4A1C08091A9
:103750008706803208F44CCF8091810690918206D2
:103760009A838983BC82AB82809185068D831E8279
:10377000EF82CE0101960E9491153ACFD090870634
:10378000F0E1DF1650F481E896E00E94911587E0A1
:10379000F40111928A95E9F776CFE11409F432CF5A
:1037A00090918206F8018181981311C09091810651
:1037B000808198130CC0F1100AC0D682C8010E9403
:1037C000911587E0F40111928A95E9F71BCFC801A2
:1037D0000E94570E811509F45BC0F11409F458C01A
:1037E00080918706803208F403CF80918106909102
:1037F00082069A838983BC82AB82809185068D8301
:103800001E82DF82B6CF60E081E896E00E94280E3B
:103810000E94CF116816790608F0B9CFE11409F4B7
:10382000F1CEF114A9F190918206F80181819813EB
:1038300025C0909181068081981320C080918306D5
:1038400090918406A81AB90AF8ECAF16B10408F0F2
:103850006CCF8091870680FD68CF803108F465CFFA
:10386000F8018683982F907F903F09F45BCF982FC3
:10387000907F905F8F70892B868354CFC8010E9400
:10388000570E8111B5CE809187068160809387069F
:10389000C8010E949115B6CEABE1B0E0E2E5FCE1D3
:1038A0000C947D314E8B5F8B688F798F8A8F192FA7
:1038B0009B8F9111109241061D8A86E0FE0176963B
:1038C000DE011F9601900D928A95E1F70A8D809195
:1038D000890682FF1FC00E94121220914306309178
:1038E0004406821B930B8838934138F0809142063E
:1038F00082FD03C082E00E94FF050E941212209107
:10390000450630914606821B930B8838934110F090
:103910000E942306011539F00B8B1C8B61E0CE0150
:103920000F960E94280E0B8B1C8B87E0FE013F96A2
:10393000DE01189601900D928A95E1F7CE01089666
:103940000E94D31A811110C0209147063091480679
:1039500087E0FE013896DE01119601900D928A955E
:10396000E1F78C8581110BC017E08091480690919A
:10397000470689132BC06B96E4E00C949931822F93
:1039800090E00196877099273817190671F40E9404
:103990005415109247061092480687E0E1E8F6E0D9
:1039A000DF011D928A95E9F7DFCF97E0929FD00162
:1039B0001124A75BB94FFE01319601900D929A95A3
:1039C000E1F7809347060E94F505CECF189FC0010E
:1039D0001124875B994F0E94D31A811561F280915F
:1039E000480690E001968770992780934806BDCFDE
:1039F000A6E0B0E0EEEFFCE10C947D310E941212E3
:103A00008C0180917105909172058017910779F072
:103A100019821A820E941212BC0149815A8180E0E7
:103A200090E00E944C1C109372050093710526963D
:103A3000E4E00C949931A6E0B0E0E1E2FDE10C9401
:103A40007D318C0190936E0580936D05011580E2A8
:103A50001807B0F4C801805E9109089728F06DE757
:103A600072E10115110511F46CE672E1C8010E94C2
:103A7000F704802F0E94F4132696E4E00C94993109
:103A800080EF89838A830E9412128160BC01498180
:103A90005A8181E091E00E944C1CEECFA6E0B0E09C
:103AA000E4E5FDE10C947D318C0190936E058093EB
:103AB0006D05011580E21807B0F4802F0E944B14A9
:103AC000C801805E9109089728F067E872E1011546
:103AD000110511F466E772E1C8010E94F704269609
:103AE000E4E00C94993180EF89838A830E9412125A
:103AF0008160BC0149815A8181E090E00E944C1CA8
:103B0000EECFCF93DF93D82FC92F0E941B1D8D2F8F
:103B10009C2F0E944E1DDF91CF9108950F931F930C
:103B2000CF93DF938C01862F6DEA75E00E94BA1166
:103B3000892BA9F4C091AD05D091AE05209779F0FD
:103B4000F8018281833051F4CE010E94811DCE01A3
:103B50000E94811DCE010E94811D01C0D8F7DF9116
:103B6000CF911F910F9108950F931F93CF93DF93E0
:103B70008C01EB016DEA75E08C2F0E94BA11892B44
:103B800009F05AC0FE01FF27D80112968C911297B6
:103B9000E055FB4F8130A9F415968C9182FD51C000
:103BA00080FF4FC082E080838091AF059091B00587
:103BB0000097B9F48091AD059091AE050097E1F1C1
:103BC00010C08230B9F515968C9182FD28C080FD19
:103BD0000BC083E080838091B1059091B20500977E
:103BE00001F10E941B1D28C084E080838091B305F1
:103BF0009091B4050097A9F78091AD059091AE051D
:103C0000009711F10E94811D8091AF059091B00540
:103C1000009739F78091AD059091AE05E2CF85E030
:103C200080838091AD059091AE05009729F00E94A8
:103C3000811DF0CF86E08083DF91CF911F910F919E
:103C4000089581E08083B6CF8091AF059091B00553
:103C5000B5CF0F931F93CF93DF938C01EB016DEAE8
:103C600075E08C2F0E94BA11892B71F4DD27C055A5
:103C7000DB4F8881F801128218828330F1F048F41A
:103C8000813059F0823081F0DF91CF911F910F91F7
:103C900008958430B9F08530B9F78091AD059091E1
:103CA000AE05009789F306C08091AF059091B005ED
:103CB000009799F30E944E1DE7CF8091B105909136
:103CC000B205F6CF8091B3059091B405009791F7B6
:103CD0002091AD053091AE058091AF059091B00572
:103CE00021153105F1F2009729F7C901E3CFACE0C6
:103CF000B0E0EDE7FEE10C94793180E01CEF0DEFD0
:103D0000FF24F3949091F5042091F404291709F409
:103D100043C0E92FF0E0EA50FB4F808187FBCC24C1
:103D2000C0F8D82EE894D7F89F5F93709093F5046D
:103D30009091F3049F5F9093F30487FD07C0DF82A7
:103D400018870E94121223E0E22E06C0DF82088745
:103D50000E94121232E0E32EBC0189879A87EB861B
:103D6000FC864F8158858E2D91E00E944C1CD98293
:103D7000C11481F00A830E941212BC018B839C83C0
:103D8000ED821E8249815A818E2D90E00E944C1C4A
:103D900081E0B8CF1A83EFCF2C96E8E00C949531F0
:103DA000AAE2B0E0E6EDFEE10C947E3183E792E01A
:103DB000FC0101962091F100208322E08B379207CD
:103DC000B9F780917402893009F45AC0C8F482307E
:103DD00009F4B7C0833009F486C0813091F1809135
:103DE000E80083FFEBC080917302909174029A30D7
:103DF00008F0E4C0E92FF0E0E858FD4C0C94BA312B
:103E00008A3009F48DC08B3051F780917302813272
:103E100031F78091770290917802892B01F7809198
:103E2000E800877F8093E8000E94250B81E0909155
:103E30007502911101C080E080930B010E9454151E
:103E4000CECF80917302813A51F68091E800877F4E
:103E50008093E8008091770290917802892B61F03D
:103E600060E080E090E070E00E94CC0A8091E80081
:103E70008B778093E800B3CF68E08BE792E0F3CFD5
:103E800080917302813209F0AACF809177029091DC
:103E900078028D7F892B09F0A2CF8091E800877F7F
:103EA0008093E8008091E80082FF18C09091F300B1
:103EB0008091F200029731F48091F100813011F08D
:103EC000863021F48091F10080930A018091E8000E
:103ED0008B778093E8000E94250B81CF8091190594
:103EE0008111E0CF7CCF80917302813A09F077CFC6
:103EF0008091770290917802892B09F070CF8091A0
:103F0000E800877F8093E8008091E80080FFFCCF85
:103F100080910B018093F1008091E8008E77D9CFDA
:103F200080917302813209F05ACF8091E800877F37
:103F30008093E8000E94250B80917602809309010E
:103F40004ECF80917302813A09F049CF8091E80009
:103F5000877F8093E8008091E80080FFFCCF80910C
:103F60000901D8CF803889F0823841F580917702F5
:103F70008F70873018F58093E9008091EB0085FB06
:103F8000882780F91092E90006C08091DC04880F30
:103F900090917002892B9091E800977F9093E800B0
:103FA0008093F1001092F1008091E8008E7723C099
:103FB000811116C080917502813011F18091E80065
:103FC00083FF0AC08091E800877F8093E80080919A
:103FD000EB0080628093EB00AA96E3E00C949A31A8
:103FE000823061F780917502811589F01092E900A5
:103FF0008091E800877F8093E8000E94250BDECF48
:1040000081E0933009F080E08093DC04EFCF809171
:1040100077028F702FEF280F263080F68093E9000B
:104020002091EB0020FFE2CF933031F48091EB0040
:1040300080628093EB00DACF9091EB0090619093D7
:10404000EB0021E030E0A90102C0440F551F8A9522
:10405000E2F74093EA001092EA008091EB0088605A
:10406000E8CF8111ABCF109175021F778091E300EB
:104070008078812B8093E3008091E800877F809394
:10408000E8000E94250B8091E80080FFFCCF809122
:10409000E30080688093E30083E0111101C082E0B7
:1040A000809319058BCF8058823008F087CF80919C
:1040B0007502909176028C3D53E0950799F583E067
:1040C0008A838AE289834FB7F894DE01139620E051
:1040D0003EE051E2E32FF0E050935700849120FF3F
:1040E00003C082958F703F5F8F708A30C8F0895C03
:1040F00090E08D939D932F5F243161F74FBF8091A6
:10410000E800877F8093E8006AE270E0CE010196C4
:104110000E94CC0A8091E8008B778093E8004ECF14
:10412000805DE6CF292F33272330310509F44EC0B7
:1041300078F52130310509F488C08BE590E0E1E4A1
:10414000F2E02230310509F039CF2091E800277FD5
:104150002093E8002091790230917A028217930728
:1041600008F49C0140E02115310509F073C04111AC
:1041700071C08091E80082FDCDCF80911905811535
:1041800049F2853039F28091E80083FFF2CFC2CF47
:1041900080917702909178022132310509F446C06E
:1041A0002232310509F00ACF8330910508F006CF9D
:1041B000FC01EE0FFF1FE256FE4F0190F081E02D53
:1041C00085569E4FDC018C9190E010C09C013327F6
:1041D000823021F12330310568F4232BB9F4E8EF64
:1041E000F2E0E4918E2F90E0E8EFF2E0009709F41E
:1041F000E5CEABCF2330310509F0E0CEEEEAF2E0B8
:10420000E4918E2F90E0EEEAF2E0F0CFE4EEF2E0FF
:10421000E4918E2F90E0E4EEF2E0E8CFECECF2E0F7
:10422000E4918E2F90E0ECECF2E0E0CF833091054A
:1042300008F0C4CEFC01EE0FFF1FEC55FE4F0190BD
:10424000F081E02D89E090E080CF82E190E0ECE920
:10425000F2E07BCF80911905811509F45BCF8530A1
:1042600009F458CF8091E80083FD54CF8091E80095
:1042700082FD7FCF8091E80080FF75CF9091F300A1
:104280008091F2002115310519F08830910550F028
:1042900041E0089709F040E08091E8008E77809334
:1042A000E80061CF44914093F100319621503109EB
:1042B0000196E8CF803809F081CE8091E800877FB1
:1042C0008093E800809171028093F1006DCE81119E
:1042D00075CE10917502123008F070CE8091E80012
:1042E000877F8093E800109371020E94250B1115BF
:1042F000F9F084E08093190542E061EC81E00E94CE
:10430000940B42E261EC84E00E94940B42E261EC87
:1043100082E00E94940B42E260EC83E00E94940BE6
:1043200080911905843051F482E080930C0146CECF
:104330008091E30087FDDDCF81E0DCCF81E0F5CF28
:104340009C014FB7F8948091830290918402A091D0
:104350008502B09186024FBF821B930B08952F9266
:104360003F925F926F927F928F929F92AF92BF9295
:10437000CF92DF92EF92FF920F931F93CF93DF9331
:104380008091D404811569F18091AC029091AD02C5
:104390000E94A021C29730F00E9412129093AD02A9
:1043A0008093AC028091AE029091AF02892B59F5B7
:1043B00080911A058115A9F00E94760A0091D50412
:1043C0001091D6042091D7043091D804601B710B52
:1043D000820B930B6F3F7F4F8F4F9F4710F40E94CC
:1043E0008411DF91CF911F910F91FF90EF90DF909B
:1043F000CF90BF90AF909F908F907F906F905F9085
:104400003F902F9008958091D3048111D1CF0E94C5
:1044100096112091AE023091AF022115310541F283
:1044200010E041E050E0812F90E01A01012E02C01F
:10443000220C331C0A94E2F7B10162237323672B29
:1044400011F41F5FF0CF2091DA0420FF94C0912F68
:10445000990F990F990F37E0390F80E023E090937F
:10446000040180930701309305012093080124E69D
:1044700030E047E050E062E071E088E70E94B42E4F
:10448000892B09F095CF20E2129FA0011124809181
:10449000DA0480FF7CC0ECE8F2E080E2DF011D92EC
:1044A0008A95E9F7AEEAB1E00AEA11E082EBC82E9C
:1044B00081E0D82E97E0592E772473948D91E801EE
:1044C00029918E01240F352F311D20553D4FE82FA6
:1044D000F0E0E457FD4F80E090E0652C681A872CEF
:1044E000082E01C0880C0A94EAF77901A12CE70193
:1044F000B9907E01B820662D6A19677070E0DB2DD7
:10450000062E01C0DD0F0A94EAF79D2E7195619584
:1045100071096770772701C0B6946A95EAF79B28FE
:104520006081962A9082A39468E0A612E0CF01965B
:1045300031968830910589F6CA16DB0609F0BECFA0
:1045400004E610E020E230E04CE852E060E488E766
:104550000E944E2F892B09F02BCFE101C095D095F9
:104560008091AE029091AF028C239D239093AF0275
:104570008093AE021DCF9695879596958795282FA7
:10458000912F9295990F90763FE1390F68CF405562
:104590005D4F04E610E020E230E0D8CFAEE1B0E0BD
:1045A000E4EDF2E20C946F31FE01319684E1DF011B
:1045B0001D928A95E9F776E1C72E71E0D72E8F011B
:1045C0001F0144244394512CF6E16F2EF1E07F2E1D
:1045D000F60181916F018F3F09F445C0F894E82FEF
:1045E000E295EF70F0E021A18F70A20102C0440FAC
:1045F000551F8A95E2F7CA01922F982B91A392A199
:104600008095892382A3789400C0EDE0F1E021E059
:1046100030E0812C912C41914F3F81F0A42FA29545
:10462000AF70A05EB0E08C9190E04F7002C09595A5
:1046300087954A95E2F7790180FF02C0E12CF12CC1
:104640008E289F28220F331F6E167F0621F7F60152
:1046500082918F3F11F00E94230850EA5A95F1F79A
:10466000D8018D929C920E5F1F4FBBE1CB16B1E03B
:10467000DB0609F0ADCF44E150E0B1018DEB94E0F1
:104680000E94D0315C01892B41F084E1F101ADEB56
:10469000B4E001900D928A95E1F70091D20410E008
:1046A000000F111F0B5F1A4FA114B10409F4B4C01D
:1046B00081E080936E020E94121290936D028093AB
:1046C0006C02D0906705D11409F4D6C17E01E5E1F2
:1046D000EE0EF11C8AE0D7011D928A95E9F78091D0
:1046E0006F028A3008F0BAC04BE45FE0B701C8013E
:1046F0000E949D0C811509F4D6C047E75FE0B70121
:10470000C8010E949D0C811509F4CDC04BEC5FE0FF
:10471000B701C8010E949D0C811509F4C4C048E985
:1047200050E1B701C8010E949D0C811509F4BBC07E
:1047300049EB50E1B701C8010E949D0C811509F4B5
:10474000B2C04AE050E1B701C8010E949D0C81153A
:1047500009F4A9C044ED50E1B701C8010E949D0CC5
:10476000811509F4A0C010926F028091D10490E0ED
:10477000880F991F4AE050E0B7018B5F9A4F0E9463
:10478000D03121E020936B02892B09F07DC080910C
:10479000BA0481119AC080916802811509F4DEC0C3
:1047A00085E0E82E85E0F82E2AE432E049E155E084
:1047B000D70180E06D917D91F901019111919F01E7
:1047C00091E00617170708F090E0892B8901025045
:1047D0001109F801718360834A175B0759F781114A
:1047E00010926702D7018D919D917D01892B21F453
:1047F0004A175B07B9F7D12C80910101823009F487
:10480000C7C008F09BC08111ADC0D11409F499C094
:1048100083E08093010195C080916E02811509F4B7
:1048200050CF80916C0290916D020E94A02105975B
:1048300008F447CF4AE050E06DEB74E0C8010E94F5
:10484000D031892B41F08AE0EDEBF4E0D801019002
:104850000D928A95E1F710926E0233CF8091690232
:1048600090916A020E94A021843F914008F03CCFC1
:1048700080916B02811509F48ACF8AE0F7011192C9
:104880008A95E9F710926B02A091D104B0E0AA0FCB
:10489000BB1FAB5FBA4F8AE0FE01759601900D9287
:1048A0008A95E1F774CF80916F028F3F39F40E94AF
:1048B000121290936A0280936902DACF8F5F80931D
:1048C0006F028A3008F451CFF2CF8091BB049091EF
:1048D000BC040E94A021883C910508F45CCF81E0D3
:1048E000809368021092BA040E949C0E8CE0809320
:1048F000810100E02FE1F22E11E141E06F2D812FC7
:104900000E9467080430B1F4FA9400E01F5F193385
:10491000A1F700E09FE0F92E1BE541E06F2D812F0C
:104920000E946708033041F4FA9400E01F5F1038DA
:10493000A1F736CF0F5FEACF0F5FF8CF833009F4CE
:104940003CC080910101823009F47BC008F045C071
:10495000811148C084E090E00E94A7086E96E2E1D1
:104960000C948B31D11054CF60915E0270915F0234
:1049700080916002909161020E94A40A68397A4392
:1049800081059105F0F21092010110926602D9CFD3
:10499000D1103ECF60915E0270915F028091600203
:1049A000909161020E94A40A6E3E724081059105B9
:1049B00040F281E080930101E8CFD110C2CF82E0C4
:1049C000809301010E94760A60935E0270935F02F9
:1049D0008093600290936102B4CF8330C9F184E088
:1049E00090E031C080916602082F10E024E030E0B2
:1049F000A901481B5109CA010E94A70860916202DF
:104A00007091630280916402909165020E94A40AF1
:104A10006C3471058105910508F4A0CFC801019699
:104A200065E070E00E94A631809366020E94760ADB
:104A300060936202709363028093640290936502B4
:104A40008DCF85E090E00E94A7081092670286CF84
:104A500010910001812F90E00E94A70880916702C9
:104A6000811106C087E0163009F086E080930001CE
:104A700081E08093670272CF8AE0F801A8E4B5E094
:104A800001900D928A95E1F76AE070E088E495E084
:104A90000E947B098093470588E0E2EFF4E0A3E5FC
:104AA000B5E001900D928A95E1F768E070E083E54A
:104AB00095E00E947B0980935205C0905B05D090E1
:104AC0005C05E0905D05F0905E0580914602909156
:104AD0004702A0914802B0914902C816D906EA06D9
:104AE000FB06B1F0C0924602D0924702E092480223
:104AF000F09249020E94760AC61AD70AE80AF90A11
:104B0000C0926905D0926A05E0926B05F0926C053F
:104B100080915F05809340068091600580933F06F9
:104B20008091610580938B028091630500916405FB
:104B3000109165059091620590933D068093410622
:104B40008091890682FF0CC080913C06081741F0D5
:104B50000E941212909346068093450600933C06ED
:104B600080913E06181310933E06809166058115CC
:104B700019F00E949611F2CE0E948411EFCECDB7AB
:104B8000DEB7E0970FB6F894DEBF0FBECDBF85B796
:104B9000806885BF85B7806885BF84B7877F84BFFD
:104BA0000FB6F894A89580916000886180936000AA
:104BB000109260000FBE80E890E00FB6F8948093EA
:104BC0006100909361000FBE81E080930C0181E24F
:104BD00098E090933D0280933C020E944F080E940F
:104BE000750B0E94C40B8091E20084608093E20008
:104BF000789480911905811599F08091E9001091C0
:104C0000EC008F70179511271795182B1092E9005B
:104C10008091E80083FD0E94D01E1F701093E90070
:104C200082E084BD93E095BD9AEF97BD80936E00BE
:104C30001092690510926A0510926B0510926C052E
:104C40000E94830E811102C00E94671188EC90E0DF
:104C50002091E30027FD0EC0AFE3BCE91197F1F707
:104C600000C000000197A1F70E94750B1092190572
:104C700080E001C081E080936705809368058093A0
:104C80001B0181110E94F92FE2EFF4E088E0DF01BF
:104C90001D928A95E9F780911B011092FB04809187
:104CA0001B0191E089278093FD0490911B01909155
:104CB0001B01911120C181110CC184E08093260158
:104CC000EFE8F1E03197F1F700C0000010E08091CB
:104CD000FD04181708F415C180911B01811124C02F
:104CE00085E0E2E8F1E0DE01919601900D928A956F
:104CF000E1F785E0FE01B196A6E1B1E001900D92E9
:104D00008A95E1F789E0E8E8F1E0DE01119601908B
:104D10000D928A95E1F789E0FE013196ADE0B1E0B0
:104D200001900D928A95E1F780911B0190E081112D
:104D300001C095E09093D20485E0891B8093D10453
:104D400006E111E0FBE1EF2EF1E0FF2ED8018D919D
:104D50008D018F3F11F00E942308E016F106B1F794
:104D60000DE011E0E6E1EE2EE1E0FE2EF80181918A
:104D70008F018F3F11F00E942308E016F106B1F772
:104D800084E1E5E0F5E0DF01282F1D922A95E9F79F
:104D9000EDEBF4E0DF011D928A95E9F70E94121213
:104DA0009093BC048093BB0481E08093BA0480E0BC
:104DB00090E00E940532853E9E4F21F40E94830EB2
:104DC000811163C065EE7EEF80E090E00E94393291
:104DD00060E082E090E00E941B3281E080933F0619
:104DE00061E083E090E00E941B3260E074E184E0C7
:104DF00090E00E94393260E086E090E00E941B3231
:104E000060E087E090E00E941B3240E050E0BA0191
:104E100088E090E00E942D3260E083E290E00E9402
:104E20001B3260E08CE090E00E941B3260E08DE07D
:104E300090E00E941B3219821A821B821C821D8202
:104E40001E821F82188648E050E067E170E0CE01C4
:104E500001960E940B3240E050E0BA018FE190E0F1
:104E60000E942D3280E00E94510D0E94671140E0A7
:104E700050E0BA018FE090E00E942D3240E050E017
:104E8000BA0183E190E00E942D3282E090E00E941E
:104E9000FD318093DD0484E090E00E940532909320
:104EA0008906809388060E94CE22EFE3FCE93197C1
:104EB000F1F700C000000E94CE228091050580FF1E
:104EC00032C06FEF7FEF80E090E00E9439320E94A5
:104ED000BA0A80E38093B90485E98093B80484E03A
:104EE0008093260160E080E00E943B0961E080E061
:104EF0000E943B09E5CE94E0909326018111F2CF08
:104F0000DFCE60E0812F0E945E09082F61E0812FD3
:104F10000E945E09E12FF0E0E450FB4F880F802BE8
:104F200080831F5FD4CE83E090E00E94FD310E9419
:104F300023051092DA0480E88093D9040E947E2E23
:104F40006BE070E083EF95E00E947711811569F1C5
:104F50008091DA0465E070E081FD9DC08EEE95E001
:104F60000E947711811509F16DE070E08CED95E0FC
:104F70000E9477118115C9F00E94760ADC01CB01ED
:104F800080529C46AB4FBF4F8093D5049093D6047C
:104F9000A093D704B093D8040E949C0E81E0809324
:104FA000D40480931A051092D3048091670581116F
:104FB00002C00E94FC2F8CE191E0909374058093D5
:104FC0007305772473948091190510E4853009F4F2
:104FD0009CC00E94CE226EEDA62E64E0B62E75E037
:104FE000E72E75E0F72ED701F501219131918D91D2
:104FF0009D9142EF54E04E175F0709F490C02817C7
:10500000390799F34090670585E095E098AB8FA745
:10501000612CAFA5B8A90D911D91B8ABAFA7F50153
:10502000219031905F012016310661F12026312652
:10503000512CCC24C394D12CC1018C219D21892BCE
:10504000C1F04114B1F059826A820E9412129C830D
:105050008B837D8291E098012C213D21232B09F443
:1050600090E09E8349815A816B817C818D810E9471
:105070004C1C5394CC0CDD1CF9E05F12DDCFF50124
:105080001293029363942AE06212C3CF0E94820AB1
:10509000332433944BC089EE95E062CF809119059B
:1050A000843029F10E9484111092DB0428E130E061
:1050B0000FB6F894A895209360000FBE109360007F
:1050C00083B7817F846083BF83B7816083BF789417
:1050D000889583B78E7F83BF0FB6F894A89580918B
:1050E0006000886180936000109260000FBE0E9493
:1050F000CE22E5E0F5E081919191892B09F035C44C
:1051000049E155E04E175F07B1F7809119058530E9
:1051100009F4C4CF0E9454150E94EB095ACF2817F6
:10512000390709F06FCF0E94F81C312C8091670578
:10513000811111C0512C80913305811551F01092CD
:1051400033058091F4048093F5048091F2048093F8
:10515000F304612C86C000913706109138060115C2
:10516000110521F40E94771E582EE5CF8091390653
:1051700090913A060E94A0218DA79EA7C8010E9487
:10518000CF114DA55EA584179507B8F42091370679
:1051900030913806C9019927287F3327232B99F4AA
:1051A00034E0880F991F3A95E1F789549A4FDC0152
:1051B00015962C9122FF0E94AF12809167058115F0
:1051C00009F4B8CFCFCF80E090E0F1CF61E0862D39
:1051D0000E945E09182F60E0862D0E945E09110F63
:1051E000182B262D30E0D901A450BB4FEC918E2F07
:1051F00083701817A9F1EE0FEE0FE12BEC9340909E
:10520000FB04460CEF70F0E0EE54FE4FA90146504F
:105210005B4F6A010081DA018C91080F002E000CAF
:10522000110BE42DF0E0EA5DFE4F8081A82EB12C39
:105230000817110524F060E0842D0E941A098827C0
:1052400099278A199B098017910724F061E0842D22
:105250000E941A09C801B5010E94A631F601808397
:1052600063948091FD04681608F4B0CF80916705BF
:10527000811519F00E94771E582A511439F00E94A6
:10528000820A0E94AF210E94961104C00E94AF21A1
:105290003110F9CF86E0E7EAF5E0DE0111960190E2
:1052A0000D928A95E1F7A090A805D090A9051091DC
:1052B000AA05C090AB050091AC051092A90510920B
:1052C000AA051092AB051092AC05812F8D2981158E
:1052D00009F440C080910005909101050E94A02131
:1052E0004C018091A505811509F439C3F5E18F16AC
:1052F000910480F18F3F19F08F5F8093A505D11441
:1053000059F00E94A10991E01D140CF09FEF899FB4
:10531000802D11248093A905111559F00E94A1092F
:1053200091E011160CF09FEF899F802D112480933E
:10533000AA058091A905811569F0B090AA05B1145C
:1053400049F00E9493098093A9058B2D0E9493092F
:105350008093AA058C2D802B811509F442C0809181
:10536000FE049091FF040E94A0218BA79CA780912E
:10537000A405811509F4ECC22BA53CA52135310506
:1053800080F18F3F19F08F5F8093A405C11459F00D
:105390000E94C10991E01C140CF09FEF899F802DA1
:1053A00011248093AB05011559F00E94C10991E0C9
:1053B00010160CF09FEF899F802D11248093AC056F
:1053C0008091AB05811569F0C090AC05C11449F01E
:1053D0000E9493098093AB058C2D0E9493098093C2
:1053E000AC058091A8058A1119C08091A905811585
:1053F00011F08D1113C02091AA05211511F0211370
:105400000DC09091AC05911511F0901307C030912B
:10541000AB05311103C0822B892B81110E94071328
:1054200086E0FE013196A7EAB5E001900D928A95DB
:10543000E1F70E94EB0990910205891721F0809312
:1054400002050E94760A80911905843009F0BBCDCF
:1054500083E08093E9008091E80082FFB4CD8091E1
:10546000E80090E085FF05C00E94440B811521F102
:1054700091E08091E8008B778093E800911509F422
:10548000A2CD00916F0510917005E98101151105FC
:1054900081F1EE3F09F051C08A81833020F08550C0
:1054A000833008F04AC0EA81EE3008F046C0F0E0F0
:1054B000EE57FD4C0C94BA3100E210E0AE014F5FA4
:1054C0005F4F6A018091E80085FD0AC08091E80085
:1054D0008B778093E8000E94440B811599F3C8CF25
:1054E0008091F100D6018D936D010150104051F76C
:1054F000BFCFE43150F4E11551F0E150E33138F41D
:10550000F0E0E057FD4C0C94BA31EE3F61F28FEFC2
:10551000898313C01A8289E08B830FC08A8182300D
:10552000A9F08330E1F0813091F70E94760A0E9461
:10553000C0316B837C838D839E8340E250E0BE014B
:105540006F5F7F4F82E00E943E0C3DCD87E290E08E
:105550000E94FD311B821C821D828E83EECF8091C2
:10556000270190912801892B41F3FE013196D70143
:105570008C9111969C91B2E0EB0EF11C9283838387
:10558000329629E1E21625E0F20689F7D6CF8A8124
:10559000823009F0BCCF6B817C818D819E810E941D
:1055A000C03187E290E00E941B32C7CF4C816B81F3
:1055B0008A810E946D0D9827892798279E838D8365
:1055C000BCCF2D813E813227232732274C816B812E
:1055D0008A810E94EE0CB1CF0E94F110AECF80E123
:1055E0008A83ABCF1A8288EA97CF8C81E82EF12C80
:1055F0008D3108F0A2CF0A811B81102701271027C7
:10560000E00EF11E6E0135E0C30ED11CE016F1066E
:1056100009F493CF80E0083A110528F4C801885AAC
:105620009C4F0E94FD31D6018D936D010F5F1F4F7E
:10563000EDCF8091270190912801892B09F47DCF2E
:105640008C81C82ED12C8D3108F077CF0A811B8137
:10565000102701271027FE0131967F01CE0EDF1E95
:10566000EC14FD0409F469CF083A110540F4D701A0
:1056700014966C91C801885A9C4F0E941B320F5F90
:105680001F4FBFEFEB1AFB0AEBCF0E94410D55CF26
:1056900084E0A6CF8C81E82EF12C8D3108F04DCF1F
:1056A0000A811B81102701271027E00EF11E6E01D1
:1056B000E5E0CE0ED11CE016F10609F43ECF80E005
:1056C000003DF2E01F0720F4C80188960E94FD31DA
:1056D000D6018D936D010F5F1F4FEDCF8C81E82EAA
:1056E000F12C8D3108F029CF0A811B811027012769
:1056F0001027003DB2E01B0708F01FCF80ED92E0BD
:10570000801B910B8E159F0508F417CFFE01319673
:105710006F01EE0EFF1ECE14DF0409F40ECF003D24
:1057200032E0130738F4D60114966C91C8018896BC
:105730000E941B320F5F1F4FBFEFCB1ADB0AEBCF6C
:1057400088E0E2E9F1E0DE01919601900D928A9500
:10575000E1F7FE0132968FE1DF011D928A95E9F7AC
:1057600086E0898388E07F96DE01159601900D9290
:105770008A95E1F7E2CE84E7898381E08A831B8200
:105780001C82DBCE8B819C81092E000CAA0BBB0BEB
:1057900025E0880F991FAA1FBB1F2A95D1F7AC01DE
:1057A000BD01405E5F4F6F4F7F4F481759076A0733
:1057B0007B0708F4C2CE8437E1E09E07A105B1055E
:1057C00008F0BBCE4537F1E05F076105710520F0B9
:1057D00044E751E060E070E0481B590BBC016250A7
:1057E0007A4FCE0101960E94C731A7CE1B810C8152
:1057F00040E0602F812F0E949C0D982789279827D1
:105800009A83898341E0602F812F0E949C0D982705
:10581000892798279C838B8390CE8E819F819827A0
:10582000892798270E9440089C0141E08D818111C1
:1058300001C040E06C818B810E94150D7ECE4EE14F
:1058400050E06FEF70E0CE0103960E94E631809148
:10585000270189830A8371CE81E090E090937005DF
:1058600080936F0582E390E0909304058093030595
:105870000E94121262CE8091270189830A8380914F
:1058800003054ACE40E250E06FEF70E0CE01019692
:105890000E94E63152CE8B81813069F0823011F165
:1058A00081114BCEFE0132968FE1DF011D928A9568
:1058B000E9F788E02DCE8C819AE0F92E8E010F5DFC
:1058C0001F4FF8012F2D11922A95E9F7B8010E9478
:1058D000BA118983F801DE01129601900D92FA94B3
:1058E000E1F72BCE1C818AE0FE013596DE01919610
:1058F00001900D928A95E1F789A19AA10E94400832
:105900009AA389A38BA19CA10E9440089CA38BA36E
:105910008DA19EA10E9440089EA38DA38FA198A552
:105920000E94400898A78FA38FEF183068F43AE0E0
:10593000139FB0011124685F7C4F4AE050E0CE0114
:1059400081960E943F3280E089830E944F08F5CD06
:105950004BA55CA54B30510508F015CD42CD5BE061
:105960008516910408F0C8CCF5CC8091DC04811533
:1059700009F4CBCB50E159BD82E189BD09B400FEE9
:10598000FDCF8091D8008F7D8093D8008091E0007A
:1059900082608093E0008091E00081FDFCCF0E9456
:1059A0005415B3CB78941F921FB61F9211248F9376
:1059B0009F93AF93BF938091830290918402A091B3
:1059C0008502B09186020196A11DB11D80938302CC
:1059D00090938402A0938502B0938602BF91AF9109
:1059E0009F918F911F901FBE1F9018951F920F922D
:1059F0000FB60F9211242F933F934F935F936F93A2
:105A00007F938F939F93AF93BF93EF93FF93809177
:105A1000E10082FF09C08091E20082FF05C0809111
:105A2000E1008B7F8093E1008091DA0080FF24C049
:105A30008091D80080FF20C08091DA008E7F809313
:105A4000DA008091D90080FFA9C080E189BD82E1A0
:105A500089BD09B400FEFDCF81E0809319058091D6
:105A60007202811109C00E94750B0E94C40B8091C3
:105A7000E20084608093E2008091E10080FF1AC020
:105A80008091E20080FF16C08091E2008E7F8093BB
:105A9000E2008091E20080618093E2008091D80072
:105AA00080628093D80019BC85E08093190583E05B
:105AB00080930C018091E10084FF2FC08091E2006F
:105AC00084FF2BC080E189BD82E189BD09B400FE5D
:105AD000FDCF8091D8008F7D8093D8008091E10028
